S01C000044796E616D696344657369676E50726F6A6563742E7372656312
S11300000C942A000C943C000C943C000C943C008E
S11300100C946C010C943C000C943C000C943C003B
S11300200C943C000C943C000C943C000C94470150
S11300300C943C000C943C000C943C000C943C004C
S11300400C943C000C943C000C943C000C943C003C
S11300500C943C0011241FBECFE5D8E0DEBFCDBF19
S113006021E0A0E6B0E001C01D92AC33B207E1F795
S11300700E944D000C94BE030C94000060E481E0E7
S11300800E942201089560E281E00E942201089505
S113009060E181E00E9422010895CF93DF93CDB700
S11300A0DEB7AC970FB6F894DEBF0FBECDBF11E03C
S11300B0198380E78A838FEF8B83CE0101960E9498
S11300C0B00002E00E8FCE014E960E94B1020E9453
S11300D0EC020E8FCE014E960E94B10281E090E0B8
S11300E09D838C83188788E490E09F838E8384E1CA
S11300F090E0A0E0B0E089879A87AB87BC87CE0107
S113010004960E94030382E090E09A8B898B1D8BF6
S113011083E490E09C8B8B8B8AE090E0A0E0B0E0DD
S11301208E8B9F8BA88FB98FCE0141960E940303BB
S113013083E090E099A388A31CA28EE390E09BA3A4
S11301408AA385E090E0A0E0B0E08DA39EA3AFA3D6
S1130150B8A7CE0180960E9403030E947003FDCFCE
S1130160FC01009709F45AC080818130D9F030F045
S1130170823061F1833009F054C03CC082818F3FEA
S113018039F49AB38181892B8ABB20E030E057C0CF
S113019081114AC09AB38181809589238ABB20E06A
S11301A030E04DC082818F3F39F497B38181892B30
S11301B087BB20E030E043C0811139C097B381810F
S11301C08095892387BB20E030E039C082818F3F4E
S11301D039F494B38181892B84BB20E030E02FC0B3
S11301E0811128C094B381818095892384BB20E048
S11301F030E025C082818F3F39F491B38181892B0E
S113020081BB20E030E01BC0811117C091B3818114
S11302108095892381BB20E030E011C021E030E0EB
S11302200EC021E030E00BC021E030E008C021E046
S113023030E005C021E030E002C021E030E0822F50
S1130240932F0895813061F028F0823079F0833063
S1130250C9F412C08BB368276BBB20E030E014C034
S113026088B3682768BB20E030E00EC085B36827F8
S113027065BB20E030E008C082B3682762BB20E0A1
S113028030E002C021E030E0822F932F08951F92C6
S11302900F920FB60F9211248F939F93AF93BF9336
S11302A08091600090916100A0916200B091630020
S11302B00196A11DB11D8093600090936100A093ED
S11302C06200B0936300BF91AF919F918F910F90A3
S11302D00FBE0F901F9018951F920F920FB60F929A
S11302E011242F933F934F935F936F937F938F9337
S11302F09F93AF93BF93EF93FF93E0916400F091CA
S11303006500309709F00995FF91EF91BF91AF9186
S11303109F918F917F916F915F914F913F912F9119
S11303200F900FBE0F901F901895FC01009709F4D1
S1130330BFC080818130D9F120F0823009F0BBC088
S11303406EC083B783BF83818430A9F030F48130D9
S113035051F0823009F0B2C00AC0863081F0873093
S113036009F0ACC010C081E0809366000FC082E049
S1130370809366000BC083E08093660007C084E02E
S11303808093660003C085E08093660082818111BA
S113039005C089B789BF20E030E0A1C0813009F0F1
S11303A090C089B7816089BF20E030E098C08EB5E5
S11303B09FB59FBD8EBD83818430A9F030F4813018
S11303C051F0823009F080C00AC0863081F0873055
S11303D009F07AC010C081E0809367000FC082E00A
S11303E0809367000BC083E08093670007C084E0BC
S11303F08093670003C085E0809367008281811148
S113040005C089B789BF20E030E069C0813009F0B8
S11304105EC089B7846089BF20E030E060C085B5E4
S1130420886085BD84819581909365008093640084
S113043083818430D9F038F4823081F098F48130AB
S113044009F048C007C08630C9F0A0F0873009F031
S113045041C018C081E08093680017C082E0809397
S1130460680013C083E0809368000FC084E0809329
S113047068000BC085E08093680007C086E0809325
S1130480680003C087E0809368008281811105C001
S113049089B789BF20E030E022C08130F1F489B708
S11304A0806889BF8FB780688FBF20E030E017C0B5
S11304B021E030E014C021E030E011C021E030E060
S11304C00EC021E030E00BC021E030E008C021E0A4
S11304D030E005C021E030E002C021E030E0822FAE
S11304E0932F0895813089F018F0823059F51CC09B
S11304F06F3F710509F048F562BF93B780916600BC
S1130500892B83BF20E030E025C071956195710986
S11305107DBD6CBD8EB59FB520916700822B9FBDBC
S11305208EBD20E030E016C06F3F710509F080F405
S113053014BC63BD95B580916800892B85BD20E00E
S113054030E008C021E030E005C021E030E002C026
S113055021E030E0822F932F089581E08093720090
S11305600895CF932091690021112EC0009779F14D
S1130570FC0180818230D1F4C2E0C0936A0081E042
S113058080936C0084E080936D008DEA92E09093F8
S11305906F0080936E008AE690E00E9495019C01B2
S11305A0C09370008AEF8093710002C02FE33DEF87
S11305B02115310521F481E08093690002C0109275
S11305C06900822F932F06C021E43DEFF8CF23E486
S11305D03DEFF5CFCF91089580916900813071F49A
S11305E0E3E7F0E08BE391E011921192E817F90749
S11305F0D9F71092690020E030E002C022E43DEF18
S1130600822F932F0895DC0180916900813009F0D5
S113061050C0109709F450C015964D915D916D919D
S11306207C91189719964D935D936D937C931C97C9
S113063014968C911497823008F041C012968D91D3
S11306409C911397892BF1F1809173009091740020
S1130650892B49F0E5E7F0E021E030E04191519148
S1130660452B61F402C020E030E0F901EE0FFF1FDA
S1130670ED58FF4FB183A08391E006C02F5F3F4F39
S11306802436310559F790E0809170008230E9F406
S11306909923F1F080913B0181111DC0609171009B
S11306A070E082E00E9472029C0181E080933B0131
S11306B014C022E43DEF11C023E43DEF0EC02FE34C
S11306C03DEF0BC023E43DEF08C02FE33DEF05C031
S11306D02CE33DEF02C020E030E0822F932F0895F9
S11306E0EF92FF920F931F93CF93DF938091720049
S11306F08130E9F510927200C3E7D0E00F2EFBE3DE
S1130700EF2EF1E0FF2EF02D8E01E881F981309774
S113071051F181859285A385B4850197A109B10919
S113072081879287A387B487E881F981818592853F
S1130730A385B485892B8A2B8B2BA9F40280F381A2
S1130740E02D0995E881F9818481813049F485811E
S11307509681A781B08581879287A387B48703C0D8
S1130760D8011D921C922296CE15DF0569F6DF9101
S1130770CF911F910F91FF90EF900895F894FFCFC0
S9030000FC
